:100000000C946D000C9495000C9495000C94950044
:100010000C9495000C9495000C9495000C9495000C
:100020000C9495000C9495000C9495000C949500FC
:100030000C9495000C9495000C9495000C949500EC
:100040000C94EE040C9495000C945E050C94380509
:100050000C9495000C9495000C9495000C949500CC
:100060000C9495000C94950005A84CCDB2D44EB9D3
:100070003836A9020C50B9918688083CA6AAAA2A4B
:10008000BE000000803F00000000240027002A007E
:1000900000000000250028002B00040404040404D0
:1000A0000404020202020202030303030303010227
:1000B00004081020408001020408102001020408F6
:1000C00010200000000800020100000304070000E7
:1000D0000000000000009005280C11241FBECFEF87
:1000E000D8E0DEBFCDBF11E0A0E0B1E0E0E5F1E295
:1000F00002C005900D92AE39B107D9F726E0AEE9FE
:10010000B1E001C01D92A937B207E1F710E0CCE6DB
:10011000D0E004C02197FE010E94700FCB36D107BA
:10012000C9F70E94F7050C949B100C94000080E422
:1001300080937C0080917A00806480937A00809123
:100140007A0086FDFCCF8091780090917900089527
:1001500090E0FC01EE53FF4F2491FC01E255FF4F6C
:100160003491FC01E656FF4FE491EE23C9F02223BF
:1001700039F0233001F1A8F4213019F1223029F1AE
:10018000F0E0EE0FFF1FE057FF4FA591B4918FB73E
:10019000F894EC91611126C030953E233C938FBFBB
:1001A00008952730A9F02830C9F0243049F780910C
:1001B00080008F7D03C0809180008F7780938000C6
:1001C000DFCF84B58F7784BDDBCF84B58F7DFBCF48
:1001D0008091B0008F778093B000D2CF8091B00033
:1001E0008F7DF9CF3E2BDACFCF93DF9390E0FC01E8
:1001F000E255FF4F249186569F4FFC01849188233E
:10020000D1F090E0880F991FFC01EA57FF4FA591AC
:10021000B491FC01E057FF4FC591D49161110EC01C
:100220009FB7F8948C91E22FE0958E238C932881D0
:10023000E223E8839FBFDF91CF9108958FB7F894B1
:10024000EC91E22BEC938FBFF6CF3FB7F8948091FF
:10025000AB019091AC01A091AD01B091AE0126B57A
:10026000A89B05C02F3F19F00196A11DB11D3FBFEE
:10027000BA2FA92F982F8827BC01CD01620F711DBD
:10028000811D911D42E0660F771F881F991F4A95B7
:10029000D1F70895AF92BF92CF92DF92EF92FF9283
:1002A0000F931F93CF93DF936C017B018B01040F9E
:1002B000151FEB015E01AE18BF08C017D10759F03A
:1002C0006991D601ED91FC910190F081E02DC6017C
:1002D0000995892B79F7C501DF91CF911F910F9176
:1002E000FF90EF90DF90CF90BF90AF900895FC010A
:1002F000538D448D252F30E0842F90E0821B930B8B
:10030000541710F0CF96089501970895FC01918D30
:10031000828D981761F0A28DAE0FBF2FB11D5D9633
:100320008C91928D9F5F9F73928F90E008958FEFD5
:100330009FEF0895FC01918D828D981731F0828D89
:10034000E80FF11D858D90E008958FEF9FEF0895E0
:10035000FC01918D228D892F90E0805C9F4F821B44
:1003600091098F73992708958FEA91E00E94A8015F
:1003700021E0892B09F420E0822F089580E090E0AD
:10038000892B29F00E94B40181110C94000008957A
:10039000FC01A48DA80FB92FB11DA35ABF4F2C91FA
:1003A000848D90E001968F739927848FA689B789F1
:1003B0002C93A089B1898C91837080648C93938DE8
:1003C000848D981306C00288F389E02D80818F7D8B
:1003D00080830895EF92FF920F931F93CF93DF9343
:1003E000EC0181E0888F9B8D8C8D98131AC0E88971
:1003F000F989808185FF15C09FB7F894EE89FF8940
:100400006083E889F98980818370806480839FBFDD
:1004100081E090E0DF91CF911F910F91FF90EF90DD
:100420000895F62E0B8D10E00F5F1F4F0F731127ED
:10043000E02E8C8D8E110CC00FB607FCFACFE88928
:10044000F989808185FFF5CFCE010E94C801F1CFE7
:10045000EB8DEC0FFD2FF11DE35AFF4FF0829FB79C
:10046000F8940B8FEA89FB8980818062CFCFCF938C
:10047000DF93EC01888D8823B9F0AA89BB89E889CC
:10048000F9898C9185FD03C0808186FD0DC00FB672
:1004900007FCF7CF8C9185FFF2CF808185FFEDCFF0
:1004A000CE010E94C801E9CFDF91CF910895089550
:1004B00090E080E00895CF93DF93EC0160E08E81BF
:1004C0000E94A80061E08E810E94A80060E08E81F9
:1004D0000E94A8008BE891E00197F1F7DF91CF919E
:1004E0000895CF92DF92EF92FF920F931F93CF93D5
:1004F000DF936C017C0187E0E80EF11CD0E0C0E0E6
:10050000062F10E0B8010C2E02C0759567950A946D
:10051000E2F76170F70181917F010E94A8002196A6
:10052000C430D10579F7C601DF91CF911F910F91AA
:10053000FF90EF90DF90CF900C945B02CF92DF9210
:10054000EF92FF920F931F93CF93DF93EC01F62E60
:10055000642F8C810E94A8008D818F3F19F060E08C
:100560000E94A8000F2D10E08F8584FF25C06E012A
:1005700087E0C80ED11CF12CE12CB8010E2C02C072
:10058000759567950A94E2F76170F60181916F01A4
:100590000E94A800FFEFEF1AFF0A88E0E816F104B6
:1005A00061F7CE01DF91CF911F910F91FF90EF90F6
:1005B000DF90CF900C945B02B80184E0759567954D
:1005C0008A95E1F7CE010E9471026F2DCE01DF9175
:1005D000CF911F910F91FF90EF90DF90CF900C94EF
:1005E000710240E0682F8DE596E00C949E02CF9357
:1005F000DF93823029F490916C06986090936C069A
:10060000809370061092710680E48093720680E1F8
:100610008093730680E58093740661E080916106A3
:100620000E94F400809162068F3F19F061E00E9401
:10063000F40061E0809163060E94F400CDE5D6E00D
:100640009E012D55364080916C0684FD0BC084E0E0
:1006500090E021962817390744F461E08E810E94CA
:10066000F400EECF88E090E0F4CF8BE39DE00197BB
:10067000F1F760E0809161060E94A80060E080913F
:1006800063060E94A800809162068F3F19F060E027
:100690000E94A80080916C0684FD39C063E08DE55E
:1006A00096E00E947102CBE4D6E4CE010197F1F707
:1006B00063E08DE596E00E9471022197F1F763E017
:1006C0008DE596E00E94710283E592E00197F1F7D3
:1006D00062E08DE596E00E94710280916C06806276
:1006E0000E94F10284E080936D068CE00E94F1028A
:1006F00081E00E94F1028BE39FE10197F1F782E034
:1007000080936E0686E0DF91CF910C94F1028062B7
:100710000E94F1028BE496E40197F1F780916C0658
:1007200080620E94F10283E592E00197F1F78091E7
:100730006C0680620E94F102D0CF909170068917FA
:1007400010F08FEF890FE82FF0E0E35AF94F84891A
:1007500080680C94F10241E00E949E0281E090E0EA
:100760000895FB0101900020E9F73197AF01461B86
:10077000570BDC01ED91FC910280F381E02D09948F
:100780008F929F92AF92BF92EF92FF920F931F931F
:10079000CF93DF93CDB7DEB7A1970FB6F894DEBF46
:1007A0000FBECDBF7C01FA01CB0119A2223008F4A3
:1007B0002AE08E010F5D1F4F822E912CB12CA12CAF
:1007C000BF01A50194010E944E0FF901CA016A30D0
:1007D0000CF5605DD8016E938D01232B242B252B06
:1007E00079F790E080E0109721F0BD01C7010E94E9
:1007F000B103A1960FB6F894DEBF0FBECDBFDF9157
:10080000CF911F910F91FF90EF90BF90AF909F906D
:100810008F900895695CDECF4F925F926F927F92C6
:100820008F929F92AF92BF92CF92DF92EF92FF9200
:100830000F931F93CF936B017C01742EAC019B012E
:100840000E94F90E64E271E0811126C04601570151
:10085000E894B7F82FEF3FEF4FE75FE7C501B4012A
:100860000E94F90E81110CC02FEF3FEF4FE75FE7B9
:10087000C501B4010E949E0C68E271E0181664F094
:100880002FEF3FEF4FE75FE4C701B6010E94410E33
:100890001816ACF46CE271E08FEA91E0CF911F91F1
:1008A0000F91FF90EF90DF90CF90BF90AF909F900F
:1008B0008F907F906F905F904F900C94B1032FEFCB
:1008C0003FEF4FE75FECC701B6010E949E0C87FD2A
:1008D000E1CF20E030E0A901C701B6010E949E0CE3
:1008E00010E000E087FF0AC06DE28FEA91E00E940D
:1008F000EA018C01F7FAF094F7F8F094C0E060E0B8
:1009000070E080E09FE37C1641F020E030E040E2C0
:1009100051E40E94A80CCF5FF6CFA70196010E9478
:10092000320C2B013C010E94210D4B015C012AE09D
:10093000BC01A4018FEA91E00E94C0037C01E00E9B
:10094000F11ECC23D1F1C501B4010E94500D9B01D1
:10095000AC01C301B2010E94310C4B015C016EE29B
:100960008FEA91E00E94EA01E80EF91EC15028F1D9
:1009700020E030E040E251E4C501B4010E94460E9F
:100980002B013C010E94210D4B01B12CA12C2AE02E
:10099000B501A4018FEA91E00E94C003E80EF91EA0
:1009A000C501B4010E94500D9B01AC01C301B2010D
:1009B0000E94310C4B015C01D9CFC701CF911F912F
:1009C0000F91FF90EF90DF90CF90BF90AF909F90EE
:1009D0008F907F906F905F904F9008951F920F922D
:1009E0000FB60F9211242F933F938F939F93AF9342
:1009F000BF938091A7019091A801A091A901B09106
:100A0000AA013091A60123E0230F2D3758F5019656
:100A1000A11DB11D2093A6018093A7019093A80169
:100A2000A093A901B093AA018091AB019091AC0170
:100A3000A091AD01B091AE010196A11DB11D8093B1
:100A4000AB019093AC01A093AD01B093AE01BF9107
:100A5000AF919F918F913F912F910F900FBE0F906B
:100A60001F90189526E8230F0296A11DB11DD2CF25
:100A70001F920F920FB60F9211242F933F934F9313
:100A80005F936F937F938F939F93AF93BF93EF93F6
:100A9000FF938FEA91E00E94C801FF91EF91BF910F
:100AA000AF919F918F917F916F915F914F913F9106
:100AB0002F910F900FBE0F901F9018951F920F92BD
:100AC0000FB60F9211242F938F939F93EF93FF9361
:100AD000E091BF01F091C0018081E091C501F091EA
:100AE000C60182FD1BC090818091C8018F5F8F730A
:100AF0002091C901821741F0E091C801F0E0E15571
:100B0000FE4F958F8093C801FF91EF919F918F9138
:100B10002F910F900FBE0F901F9018958081F4CFEA
:100B2000EFEAF1E01382128288EE93E0A0E0B0E0F9
:100B300084839583A683B7838AE091E09183808341
:100B400085EC90E09587848784EC90E09787868792
:100B500080EC90E0918B808B81EC90E0938B828B8A
:100B600082EC90E0958B848B86EC90E0978B868B63
:100B7000118E128E138E148EEDE5F6E01382128222
:100B80008CE191E0918380838CE084838FEF858377
:100B90008BE0868385E0878384E0808783E081879C
:100BA00082E082871386148615861686178681E072
:100BB0000E94F702ECE4F6E01082118214821382A4
:100BC00080E890E09683858380E090E0A8E4B2E43A
:100BD00087839087A187B2878CE492E0948783878C
:100BE0008CE494E09687858787E082830895CF938D
:100BF000DF93CDB7DEB7E0970FB6F894DEBF0FBE38
:100C0000CDBF789484B5826084BD84B5816084BD95
:100C100085B5826085BD85B5816085BD80916E009A
:100C2000816080936E0010928100809181008260CB
:100C30008093810080918100816080938100809108
:100C400080008160809380008091B10084608093F7
:100C5000B1008091B00081608093B00080917A00F3
:100C6000846080937A0080917A00826080937A0019
:100C700080917A00816080937A0080917A00806808
:100C800080937A001092C100E091BF01F091C00101
:100C900082E08083E091BB01F091BC011082E09181
:100CA000BD01F091BE0180E180831092C701E09107
:100CB000C301F091C40186E08083E091C101F0910D
:100CC000C201808180618083E091C101F091C20105
:100CD000808188608083E091C101F091C2018081B0
:100CE00080688083E091C101F091C20180818F7D95
:100CF000808360E08EE00E94F4000E949700BC01B7
:100D0000990F880B990B0E94520D60939E0170936E
:100D10009F018093A0019093A10182E00E94F702BD
:100D200080E00E949D0360E371E08DE596E00E9403
:100D3000B1030E9425014B015C0130EDC32E37E069
:100D4000D32EE12CF12C0E942501681979098A091A
:100D50009B09683E734081059105A8F321E0C21A02
:100D6000D108E108F10838EE830E33E0931EA11C90
:100D7000B11CC114D104E104F10429F70E9425013A
:100D80006093A2017093A3018093A4019093A501A5
:100D9000ECE4F4E0FA83E9832CE4E22E22E0F22E84
:100DA00029813A812C54364009F459C00E94970099
:100DB0008C0120E030E040E05FE360919E017091A3
:100DC0009F018091A0019091A1010E94460E4B01CC
:100DD0005C01B801110F880B990B0E94520D20E0A5
:100DE00030E040E05FE30E94460E9B01AC01C5018C
:100DF000B4010E94320C60939E0170939F01809316
:100E0000A0019093A101A981BA816D937D938D93E7
:100E10009D93BA83A983F7011192119211921192B5
:100E20007F018090A2019090A301A090A401B090B6
:100E3000A501F0E28F0EFEE49F1EA11CB11C809262
:100E4000A2019092A301A092A401B092A5010E94D8
:100E50002501681579058A059B05C8F3A1CF009186
:100E60005106109152062091590630915A063A8344
:100E700029833A8F298F3E832D831C821B82812CEC
:100E8000912C54016B817C8106171707A1F0AD816D
:100E9000BE812D913D914D915D91BE83AD83C50184
:100EA000B4010E94320C4B015C01EB81FC81319654
:100EB000FC83EB83E7CF2B813C81B90190E080E09C
:100EC0000E94500D6B017C01AC019B01C501B40176
:100ED0000E94A80C2B013C0109811A811E821D82EF
:100EE0006B817C818D819E8168177907D1F0D80153
:100EF0006D917D918D919D918D015D01B4E0AB1A55
:100F0000B108A30192010E94310CF5016083718345
:100F1000828393832D813E812F5F3F4F3E832D83BC
:100F2000DFCF20904F06309050066B817C81769504
:100F3000679578876F838B809C80880C991C880CC0
:100F4000991C2114310409F4CFC080914C068823E8
:100F500009F44BC080915B0690915C06019709F003
:100F600044C080914D06811140C089819A81880ECC
:100F7000991E8C011E821D82AD81BE81EF81F88594
:100F8000AE17BF0709F4A3C0D8012D913D914D9133
:100F90005D918D017D01B4E0EB1AF108F1016081F2
:100FA0007181828193810E94460ED7016D937D935A
:100FB0008D939C931397F10121913191419151911E
:100FC0001F01D4019E918E917E916E914D010E94E0
:100FD000460EF40160837183828393832D813E8169
:100FE0002F5F3F4F3E832D83C7CF20E030E040E8A6
:100FF0005FE3C701B6010E94310C2B013C016981FE
:101000007A81860E971E8B011E821D828F819885A4
:10101000AD81BE818A179B0709F44EC0BD0190E0E7
:1010200080E00E94500DA30192010E94A80C2BEDBC
:101030003FE049EC50E40E94460E0E94A30C2FE1D1
:1010400035E84BEE5EE30E94460E9B01AC0161E782
:101050007DE38AE09FE30E94310C6B017C01F1018A
:10106000C192D192E192F1921F01D8012D913D914F
:101070004D915D918D015D01B4E0AB1AB1080E9404
:10108000460EF5016083718382839383A7019601E5
:10109000D4019E918E917E916E914D010E94460EDB
:1010A000F40160837183828393832D813E812F5F5E
:1010B0003F4F3E832D83AACF31E030934C061092F0
:1010C0004D0661E070E070935C0660935B062B80D8
:1010D0003C801AA2369427942114310409F464C088
:1010E0003AA13F5F3AA3F6CF20E030E040E85FE36B
:1010F000C701B6010E94310C2B013C0189819A8104
:10110000880E991E8C011E821D82AF81B885ED81EB
:10111000FE81AE17BF07D9F2BF0190E080E00E94C8
:10112000500DA30192010E94A80C2BED3FE049EC69
:1011300050E40E94460E0E94A30C2FE135E84BEECE
:101140005EE30E94460E9B01AC0161E77DE38AE00D
:101150009FE30E94310C6B017C01D8012D913D91E0
:101160004D915D918D015D01B4E0AB1AB1080E9413
:10117000460EF5016083718382839383A7019601F4
:10118000D4019E918E917E916E914D010E94460EEA
:10119000F40160837183828393832D813E812F5F6D
:1011A0003F4F3E832D83B1CF609157067091580613
:1011B0007CA36BA3E981FA8130E020E090E080E03D
:1011C0004B815C81415051092417350770F5281770
:1011D0003907D8F4DC01AA0FBB1FAA0FBB1F698116
:1011E0007A81A60FB71FC080D180E280F3808D90F6
:1011F0009D90AD90BC90139780829182A282B38221
:10120000CD92DD92ED92FC9213976F8178858617CF
:10121000970728F0861B970B76956795F8CF860F72
:10122000971F2F5F3F4F3496CFCF1B8E01E010E00A
:101230001E8E1F8E18A219A280E090E0A0E8BFEBDE
:10124000898B9A8BAB8BBC8B9B8DAAA19A13D0C038
:101250000F8118850F5F1F4FA98DBA8D6D917D91FC
:101260008D919D91BA8FA98FEBA1FCA1C190D190D6
:10127000E190F190FCA3EBA39B01AC010E94460E10
:101280004B015C01A7019601C701B6010E94460E01
:101290009B01AC01C501B4010E94320C0E94B90E41
:1012A000E98DFA8D34976083718382839383FFEF96
:1012B0002F1A3F0A2016310678F204E514E0312C8B
:1012C000212C812C912CA12CB12C22E030E03A83EE
:1012D0002983D801CD90DD90ED90FD908D01940192
:1012E000A501C701B6010E94410E181624F42980F9
:1012F0003A8046015701E981FA813196FA83E98300
:101300003B9739F781011595079502301105F4F0E7
:101310009801220F331F220F331F245B3B4F3A8368
:1013200029832AE939E949E95EE3B401C5010E944C
:10133000460E9B01AC01A981BA816D917D918D9181
:101340009C910E94410E18160CF418018101B4E022
:101350002B16310414F404E010E0F8013297FA83FC
:10136000E983F9E02F1631041CF098E0292E312C86
:1013700022E0220E311C000F111F000F111F0C5B09
:101380001B4FC12CD12C76014601570169817A810E
:10139000261637060CF493C1D8014D905D906D90E0
:1013A0007D908D01072E000C880B990B0E94520D29
:1013B00020E030E048EC5EE30E94460EA30192017B
:1013C0000E94460E9B01AC01C501B4010E94320C83
:1013D0004B015C01A3019201C701B6010E94320CCE
:1013E0006B017C01E981FA813196FA83E983CECFE2
:1013F000F801EE0FFF1FFEA3EDA3980173E0220F8B
:10140000331F7A95E1F738A72FA3B801660F771F2E
:10141000660F771F7AA769A7188A1F861E861D8602
:10142000412C512C320119861A8670E87B878FE394
:101430008C87AF85B8890A171B0709F40DC1E981AC
:10144000FA812D853E85E20FF31FFE83ED836BA1AC
:101450007CA1620F731F78AB6FA7BD8FAC8F8B81A0
:101460009C81AC8DBD8DA817B90708F0ADC0ED818A
:10147000FE8129A53AA5E20FF31FFCA7EBA7808008
:101480009180A280B3806FA578A9260F371F3EA751
:101490002DA7D9018D919D910D90BC91A02D8D8B83
:1014A0009E8BAF8BB88F29853A854B855C85C501AE
:1014B000B4010E94460E6B017C01A30192016D896B
:1014C0007E898F89988D0E94460E9B01AC01C701D1
:1014D000B6010E94310C6B017C012D893E894F8938
:1014E000588D69857A858B859C850E94460E6D8B0B
:1014F0007E8B8F8B988FA3019201C501B4010E944E
:10150000460E9B01AC016D897E898F89988D0E9462
:10151000320C4B015C01A7019601ED81FE816081D7
:101520007181828193810E94310CABA5BCA56D9322
:101530007D938D939C931397A5019401EFA5F8A932
:1015400060817181828193810E94310CADA5BEA51D
:101550006D937D938D939C931397A7019601ED81D5
:10156000FE8160817181828193810E94320CAD8104
:10157000BE816D937D938D939C931397A5019401E8
:10158000EFA5F8A960817181828193810E94320C5C
:10159000AFA5B8A96D937D938D939C931397EC8D14
:1015A000FD8D2DA13EA1E20FF31FFD8FEC8F6D810C
:1015B0007E818FA198A5680F791F7E836D83A80F08
:1015C000B91FB8ABAFA74BCF29893A894B895C8942
:1015D00069857A858B859C850E94460E6B017C010E
:1015E0002E8D3F8D48A159A1C301B2010E94460E24
:1015F0009B01AC01C701B6010E94310CD62EE72E2B
:10160000F82E9D8329893A894B895C89C301B201EF
:101610000E94460E4B015C012E8D3F8D48A159A1C1
:1016200069857A858B859C850E94460EA50194016B
:101630000E94320C2B013C01AF85B8891196B88B02
:10164000AF87ED85FE853496FE87ED87D986EA86DD
:10165000FB86FD81FC87EDCE20E030E040E05FE3DB
:1016600069897A898B899C890E94460E4B015C01AD
:10167000AC019B0160E070E080E09FE30E94310CD0
:101680000E94B90E6B017C0120E030E040E05FE396
:10169000C501B4010E94320C0E94B90E698B7A8B8D
:1016A0008B8B9C8BC701B60190586E8F7F8F88A360
:1016B00099A37B8D7F5F7B8F0DA11EA1C5CD69E3B3
:1016C00071E08FEA91E00E94B10342E0C701B601E8
:1016D0000E940C046FE371E08FEA91E00E94B10375
:1016E00081E00E94F1028BE39FE10197F1F720E096
:1016F00030E040EA52E4C701B6010E94410E1816DC
:101700000CF08EC0A7019601C501B4010E94A80C7F
:101710004B015C0120E030E040E752E40E94460EBD
:101720006B017C0120E030E0A9010E94410E20E025
:1017300030E040E05FE387FD6EC0C701B6010E9464
:10174000320C0E941A0D6B0162E471E08FEA91E0A5
:101750000E94B10342E0C501B4010E940C046EE492
:1017600071E08FEA91E00E94B1030D2C000CEE08AD
:10177000FF082AE0B701A601F7FE0DC06DE28FEA6F
:1017800091E00E94EA0144275527BA014C195D09EE
:101790006E097F092AE08FEA91E00E94C0036FE39F
:1017A00071E08FEA91E00E94B10380E00E949D0306
:1017B0006CE571E08DE596E00E94B10381E00E9446
:1017C0009D032AE0B701A601F7FE0EC041E06DE2DD
:1017D0008DE596E00E949E0244275527BA014C19D8
:1017E0005D096E097F092AE08DE596E00E94C0033D
:1017F00068E671E08DE596E00E94B10320E030E0FC
:10180000232B09F4BBCA0E94B401882309F4B6CA89
:101810000E940000B3CAC701B6010E94310C91CFEB
:101820006DE671E08FEA91E00E94B1036FE371E031
:101830008FEA91E00E94B10360E871E08DE596E0E7
:101840000E94B10381E00E949D036FE871E0D2CF56
:1018500080914F0690915006009711F00C94121051
:1018600008955058BB27AA270E94490C0C94F30DE9
:101870000E94BA0D38F00E94C10D20F039F49F3F4C
:1018800019F426F40C94B70D0EF4E095E7FB0C94D4
:10189000B10DE92F0E94180E58F3BA1762077307AB
:1018A0008407950720F079F4A6F50C943A0E0EF40F
:1018B000E0950B2EBA2FA02D0B01B90190010C0160
:1018C000CA01A0011124FF27591B99F0593F50F478
:1018D000503E68F11A16F040A22F232F342F4427D0
:1018E000585FF3CF469537952795A795F0405395C8
:1018F000C9F77EF41F16BA0B620B730B840BBAF098
:101900009150A1F0FF0FBB1F661F771F881FC2F702
:101910000EC0BA0F621F731F841F48F48795779516
:101920006795B795F7959E3F08F0B0CF9395880FD0
:1019300008F09927EE0F9795879508950E948D0DD1
:1019400008F481E008950E94CA0DE3950C94040EFA
:101950000E94BC0C0C94F30D0E94C10D58F00E9423
:10196000BA0D40F029F45F3F29F00C94B10D5111EC
:101970000C943B0E0C94B70D0E94180E68F399233B
:10198000B1F3552391F3951B550BBB27AA2762177B
:101990007307840738F09F5F5F4F220F331F441F88
:1019A000AA1FA9F335D00E2E3AF0E0E832D09150BC
:1019B0005040E695001CCAF72BD0FE2F29D0660FA9
:1019C000771F881FBB1F261737074807AB07B0E8EC
:1019D00009F0BB0B802DBF01FF2793585F4F3AF0F2
:1019E0009E3F510578F00C94B10D0C943B0E5F3F77
:1019F000E4F3983ED4F3869577956795B795F79578
:101A00009F5FC9F7880F911D9695879597F908955F
:101A1000E1E0660F771F881FBB1F621773078407FB
:101A2000BA0720F0621B730B840BBA0BEE1F88F70A
:101A3000E09508950E94210D6894B1110C943B0E1D
:101A400008950E94200E88F09F5798F0B92F99278B
:101A5000B751B0F0E1F0660F771F881F991F1AF099
:101A6000BA95C9F714C0B13091F00E943A0EB1E0B6
:101A700008950C943A0E672F782F8827B85F39F0B5
:101A8000B93FCCF3869577956795B395D9F73EF432
:101A900090958095709561957F4F8F4F9F4F0895DA
:101AA000E89409C097FB3EF49095809570956195F8
:101AB0007F4F8F4F9F4F9923A9F0F92F96E9BB27AE
:101AC0009395F695879577956795B795F111F8CF2A
:101AD000FAF4BB0F11F460FF1BC06F5F7F4F8F4F95
:101AE0009F4F16C0882311F096E911C0772321F08B
:101AF0009EE8872F762F05C0662371F096E8862F23
:101B000070E060E02AF09A95660F771F881FDAF779
:101B1000880F9695879597F90895990F0008550FA6
:101B2000AA0BE0E8FEEF16161706E807F907C0F063
:101B300012161306E407F50798F0621B730B840B6B
:101B4000950B39F40A2661F0232B242B252B21F445
:101B500008950A2609F4A140A6958FEF811D811DE5
:101B6000089597F99F6780E870E060E008959FEF1F
:101B700080EC089500240A94161617061806090624
:101B8000089500240A9412161306140605060895F3
:101B90000C94B70D0E94200ED8F3E894E0E0BB2728
:101BA0009F57F0F02AED3FE049EC06C0EE0FBB0F67
:101BB000661F771F881F28F0B23A620773078407F1
:101BC00028F0B25A620B730B840BE3959A9572F767
:101BD000803830F49A95BB0F661F771F881FD2F7A5
:101BE00090480C94000F092E0394000C11F48823E4
:101BF00052F0BB0F40F4BF2B11F460FF04C06F5FC5
:101C00007F4F8F4F9F4F0895EF93E0FF07C0A2EAE9
:101C10002AED3FE049EC5FEB0E94490C0E94F30D76
:101C20000F90039401FC9058E8E6F0E00C94130F39
:101C300057FD9058440F551F59F05F3F71F047957D
:101C4000880F97FB991F61F09F3F79F08795089562
:101C5000121613061406551FF2CF4695F1DF08C081
:101C6000161617061806991FF1CF8695710561059E
:101C700008940895E894BB2766277727CB0197F946
:101C800008950E948D0D08F48FEF08950E94590E5B
:101C90000C94F30D0E94BA0D38F00E94C10D20F093
:101CA000952311F00C94B10D0C94B70D11240C94E4
:101CB0003B0E0E94180E70F3959FC1F3950F50E0F4
:101CC000551F629FF001729FBB27F00DB11D639FEE
:101CD000AA27F00DB11DAA1F649F6627B00DA11D94
:101CE000661F829F2227B00DA11D621F739FB00D3A
:101CF000A11D621F839FA00D611D221F749F3327AA
:101D0000A00D611D231F849F600D211D822F762F42
:101D10006A2F11249F5750409AF0F1F088234AF01F
:101D2000EE0FFF1FBB1F661F771F881F915050408B
:101D3000A9F79E3F510580F00C94B10D0C943B0E19
:101D40005F3FE4F3983ED4F3869577956795B79512
:101D5000F795E7959F5FC1F7FE2B880F911D96952C
:101D6000879597F9089519F416F40C94B70D0C940F
:101D7000FE0E0E94200EB8F39923C9F3B6F39F57C5
:101D8000550B87FF0E940C0F0024A0E640EA90014B
:101D900080585695979528F4805C660F771F881FAA
:101DA00020F026173707480730F4621B730B840BAB
:101DB000202931294A2BA6951794079420253125EF
:101DC0004A2758F7660F771F881F20F02617370716
:101DD000480730F4620B730B840B200D311D411D3D
:101DE000A09581F7B901842F9158880F9695879512
:101DF00008950E948D0D880B990B08959F3F31F037
:101E0000915020F4879577956795B795880F911D28
:101E10009695879597F9089591505040660F771FD2
:101E2000881FD2F708959F938F937F936F93FF93AB
:101E3000EF939B01AC010E94460EEF91FF910E942F
:101E4000270F2F913F914F915F910C94460EDF9396
:101E5000CF931F930F93FF92EF92DF927B018C0140
:101E6000689406C0DA2EEF010E94590EFE01E89434
:101E7000A5912591359145915591A6F3EF010E94C9
:101E8000490CFE019701A801DA9469F7DF90EF9001
:101E9000FF900F911F91CF91DF910895A1E21A2E2B
:101EA000AA1BBB1BFD010DC0AA1FBB1FEE1FFF1FFE
:101EB000A217B307E407F50720F0A21BB30BE40B4E
:101EC000F50B661F771F881F991F1A9469F7609595
:101ED0007095809590959B01AC01BD01CF0108954F
:101EE000EE0FFF1F0590F491E02D09940F931F93BF
:101EF000CF93DF938230910510F482E090E0E0917F
:101F00007706F091780630E020E0B0E0A0E030976E
:101F100099F42115310509F44AC0281B390B2430E6
:101F20003105D8F58A819B816115710589F1FB0125
:101F300093838283FE0111C040815181028113810C
:101F400048175907E0F04817590799F4109761F0BE
:101F500012960C93129713961C933296CF01DF9131
:101F6000CF911F910F9108950093770610937806F3
:101F7000F4CF2115310551F04217530738F0A9016C
:101F8000DB019A01BD01DF01F801C1CFEF01F9CFFB
:101F90009093780680937706CDCFFE01E20FF31F72
:101FA000819391932250310939832883D7CF20918F
:101FB000750630917606232B41F420910201309171
:101FC000030130937606209375062091000130912D
:101FD00001012115310541F42DB73EB740910401AF
:101FE00050910501241B350BE0917506F0917606A2
:101FF000E217F307A0F42E1B3F0B2817390778F0E0
:10200000AC014E5F5F4F2417350748F04E0F5F1F3E
:102010005093760640937506819391939FCFF0E09D
:10202000E0E09CCFCF93DF930097E9F0FC0132977B
:1020300013821282A0917706B0917806ED0130E00C
:1020400020E01097A1F420813181820F931F20910D
:102050007506309176062817390709F061C0F093AC
:102060007606E0937506DF91CF910895EA01CE17C9
:10207000DF07E8F54A815B819E0141155105B1F703
:10208000E901FB83EA8349915991C40FD51FEC17ED
:10209000FD0761F4808191810296840F951FE9010B
:1020A00099838883828193819B838A83F0E0E0E037
:1020B00012968D919C9113970097B9F52D913C91B3
:1020C0001197CD010296820F931F209175063091D2
:1020D00076062817390739F6309751F510927806A9
:1020E00010927706B0937606A0937506BCCFD38383
:1020F000C28340815181840F951FC817D90761F4AD
:102100004E5F5F4F88819981480F591F51834083EB
:102110008A819B81938382832115310509F0B0CF99
:10212000F0937806E09377069ECFFD01DC01C0CFE7
:1021300013821282D7CF10E0CCE6D0E004C0FE01BB
:102140000E94700F2196CD36D107C9F7F894FFCFC2
:1021500000007906800000000000EA014A017701D2
:102160003702A80186019A0100000000AB034A0172
:10217000580257026E616E00696E66006F766600E7
:1021800048656C6C6F203A30004D61673A20000D55
:102190000A005472756520467265713A2000204825
:1021A0007A20207C202042504D3A20004865617200
:1021B0007420526174653A002042504D00536967A3
:1021C0006E616C20746F6F207765616B2E2E2E0010
:1021D00052656164696E672053656E736F7200505B
:0E21E0006C6561736520776169742E2E2E0088
:00000001FF
